:100000000C945F000C9487000C9487000C9487007C
:100010000C9487000C9487000C9487000C94870044
:100020000C9487000C9487000C9487000C94870034
:100030000C9487000C9487000C9487000C94870024
:100040000C9422020C9487000C943F040C946C04D2
:100050000C9487000C9487000C9487000C94870004
:100060000C94A20B0C948700000000080002010011
:100070000003040700000000000000000102040863
:100080001020408001020408102001020408102002
:10009000040404040404040402020202020203032E
:1000A0000303030300000000250028002B000000CC
:1000B0000000240027002A000A029C04930A11244D
:1000C0001FBECFEFD8E0DEBFCDBF11E0A0E0B1E0B2
:1000D000E0E4FFE102C005900D92AE34B107D9F71C
:1000E00022E0AEE4B1E001C01D92A03DB207E1F70D
:1000F00010E0CFE5D0E004C02197FE010E94890FF7
:10010000CC35D107C9F70E941F060C94C20C0C9481
:10011000000026E040E052EC61E070E08FE691E004
:100120000E94DD0360E071E08FE691E00E9415051A
:1001300050E040E06CE370E084E591E00E942E0620
:1001400040E064E080915201909153010E942007A9
:1001500040E064E080915001909151010E9420079D
:1001600040E050E160E084E591E00E94690640E0F3
:100170005EE061E084E591E00E94690640E05CE0B9
:1001800062E084E591E00E94690640E05AE063E0A5
:1001900084E591E00E94690640E058E064E084E56F
:1001A00091E00E94690640E056E065E084E591E058
:1001B0000E94690640E054E066E084E591E00E9418
:1001C000690640E052E067E084E591E00E9469063C
:1001D00050E040E068E084E591E00C946906AF925D
:1001E000BF92CF92DF92EF92FF920F931F93BC01C9
:1001F000990F880B990B1F921F9229E02F932EE2E3
:100200002F932AE8A22E22E0B22EC12CD12C14EB7F
:10021000E12EF12C00E010E020E030E0A9010E9486
:10022000DD05072E000C880B990B0E94DC0D20E0E9
:1002300034E244E759E40E94320D20E030E048E423
:1002400052E40E94C00E20E030E040E855E40E94F5
:10025000C00E0E94A40D6B014AE050E08FE691E0D1
:100260000E94CB050F900F900F900F90C6011F9129
:100270000F91FF90EF90DF90CF90BF90AF900895D7
:1002800040E061E080915001909151010E9420076F
:1002900040E561E080915201909153010E94200756
:1002A00090E080E00E94EF00AC0168E084E591E01E
:1002B0000E94690610924F0110924E0160914E010A
:1002C00070914F016F3F7105B4F48091500190918E
:1002D00051010E94580763E070E080E090E00E94C6
:1002E0008F0280914E0190914F01019690934F01A2
:1002F00080934E01E3CF88E790E00E94EF00AC01CD
:1003000068E084E591E00E9469068FEF90E09093A9
:100310004F0180934E0160914E0170914F01809189
:100320005001909151016115710571F00E945807BB
:1003300063E070E080E090E00E948F0280914E01C7
:1003400090914F010197E3CF40E062E00E942007C7
:1003500040E562E080915201909153010E94200794
:1003600084EB90E00E94EF00AC0168E084E591E04E
:100370000E94690610924F0110924E0160914E0149
:1003800070914F016F3F7105B4F4809150019091CD
:1003900051010E94580763E070E080E090E00E9405
:1003A0008F0280914E0190914F01019690934F01E1
:1003B00080934E01E3CF8AE590E00E94EF00AC010C
:1003C00068E084E591E00E9469068FEF90E09093E9
:1003D0004F0180934E0160914E0170914F01611564
:1003E000710591F080915001909151010E94580740
:1003F00063E070E080E090E00E948F0280914E0107
:1004000090914F010197E3CF60E171E08FE691E0B9
:100410000C94150560E784E591E00E94E10661E037
:1004200084E591E00E9478069093530180935201F5
:1004300062E084E591E00E947806909351018093F8
:10044000500108951F921FB61F9211242F933F93BE
:100450008F939F93AF93BF938091670190916801B1
:10046000A0916901B0916A013091660123E0230FE8
:100470002D3750F50196A11DB11D20936601809383
:10048000670190936801A0936901B0936A0180911C
:100490006B0190916C01A0916D01B0916E0101967C
:1004A000A11DB11D80936B0190936C01A0936D0110
:1004B000B0936E01BF91AF919F918F913F912F911A
:1004C0001F901FBE1F90189526E8230F0296A11DAE
:1004D000B11DD3CF3FB7F89480916B0190916C011F
:1004E000A0916D01B0916E0126B5A89B05C02F3F6C
:1004F00019F00196A11DB11D3FBFBA2FA92F982F4A
:100500008827BC01CD01620F711D811D911D42E044
:10051000660F771F881F991F4A95D1F708958F920C
:100520009F92AF92BF92CF92DF92EF92FF926B01B8
:100530007C010E946A024B015C01C114D104E104F8
:10054000F104E9F00E944E080E946A0268197909D4
:100550008A099B09683E73408105910570F321E08B
:10056000C21AD108E108F10888EE880E83E0981ECF
:10057000A11CB11CC114D104E104F10429F7FF90BE
:10058000EF90DF90CF90BF90AF909F908F900895A5
:10059000789484B5826084BD84B5816084BD85B55E
:1005A000826085BD85B5816085BDEEE6F0E0808125
:1005B00081608083E1E8F0E0108280818260808346
:1005C000808181608083E0E8F0E0808181608083C9
:1005D000E1EBF0E0808184608083E0EBF0E08081FB
:1005E00081608083EAE7F0E080818460808380819D
:1005F0008260808380818160808380818068808345
:100600001092C1000895FC01918D228D892F90E0F8
:10061000805C9F4F821B91098F7399270895FC017D
:10062000918D828D981731F0828DE80FF11D858DA7
:1006300090E008958FEF9FEF0895FC01918D828DDA
:10064000981761F0A28DAE0FBF2FB11D5D968C91F2
:10065000928D9F5F9F73928F90E008958FEF9FEF31
:100660000895FC01538D448D252F30E0842F90E0B8
:10067000821B930B541710F0CF960895019708959D
:1006800082E994E0892B49F080E090E0892B29F001
:100690000E94920481110C9400000895FC01A48D25
:1006A000A80FB92FB11DA35ABF4F2C91848D90E094
:1006B00001968F739927848FA689B7892C93A08977
:1006C000B1898C91837080648C93938D848D981301
:1006D00006C00288F389E02D80818F7D8083089594
:1006E000CF93DF93EC01888D8823B9F0AA89BB8969
:1006F000E889F9898C9185FD03C0808186FD0DC054
:100700000FB607FCF7CF8C9185FFF2CF808185FF74
:10071000EDCFCE010E944E03E9CFDF91CF91089536
:10072000EF92FF920F931F93CF93DF93EC01F62E7E
:1007300081E0888F9B8D8C8D98131AC0E889F98988
:10074000808185FF15C09FB7F894EE89FF8960838B
:10075000E889F98980818370806480839FBF81E00C
:1007600090E0DF91CF911F910F91FF90EF9008954E
:100770000B8D10E00F5F1F4F0F731127E02E8C8D34
:100780008E110CC00FB607FCFACFE889F989808179
:1007900085FFF5CFCE010E944E03F1CFEB8DEC0F1C
:1007A000FD2FF11DE35AFF4FF0829FB7F8940B8F96
:1007B000EA89FB8980818062D0CFCF92DF92EF926D
:1007C000FF921F93CF93DF93EC016A017B01122FFD
:1007D000E889F98982E08083C11481EED806E104BA
:1007E000F104A1F060E079E08DE390E0A7019601CB
:1007F0000E943D0F215031094109510956954795F5
:1008000037952795211580E1380798F0E889F9890F
:10081000108260E874E88EE190E0A70196010E94E2
:100820003D0F21503109410951095695479537959A
:100830002795EC85FD853083EE85FF852083188E16
:10084000EC89FD891083EA89FB898081806180833E
:10085000EA89FB89808188608083EA89FB898081BD
:1008600080688083EA89FB8980818F7D8083DF9126
:10087000CF911F91FF90EF90DF90CF9008952F932D
:100880002FB72F938F939F93EF93FF93E0917F0167
:10089000F09180018081E0918501F091860182FDD7
:1008A00019C09081809188018F5F8F732091890199
:1008B000821741F0E0918801F0E0E159FE4F958FF9
:1008C00080938801FF91EF919F918F912F912FBF7E
:1008D0002F9118958081F6CF1F920F920FB60F922D
:1008E00011242F933F934F935F936F937F938F9335
:1008F0009F93AF93BF93EF93FF938FE691E00E9496
:100900004E03FF91EF91BF91AF919F918F917F9196
:100910006F915F914F913F912F910F900FBE0F906C
:100920001F9018958FE691E00E94030321E0892B28
:1009300009F420E0822F0895EFE6F1E0138212829D
:1009400088EE93E0A0E0B0E084839583A683B7832C
:100950008AE291E09183808385EC90E0958784879B
:1009600084EC90E09787868780EC90E0918B808B79
:1009700081EC90E0938B828B82EC90E0958B848B62
:1009800086EC90E0978B868B118E128E138E148ED0
:10099000089590E080E00895CF92DF92EF92FF9269
:1009A0000F931F93CF93DF937C016A0110E000E067
:1009B0000C151D0581F0EB01D701ED91FC91019023
:1009C000F081E02D6991C7010995892B21F00F5F16
:1009D0001F4FBE01EDCFC801DF91CF911F910F9145
:1009E000FF90EF90DF90CF9008956115710579F039
:1009F000FB0101900020E9F73197AF01461B570B2F
:100A0000DC01ED91FC910280F381E02D099490E0EE
:100A100080E00895DC01ED91FC910190F081E02DE2
:100A2000099468E371E00C94F5040F931F93CF933E
:100A3000DF93EC010E94F5048C01CE010E941105A8
:100A4000800F911FDF91CF911F910F9108954F92C9
:100A50005F926F927F92AF92BF92CF92DF92EF92AE
:100A6000FF920F931F93CF93DF93CDB7DEB7A1977C
:100A70000FB6F894DEBF0FBECDBF5C016A017B01EB
:100A800019A2223008F42AE08E010F5D1F4F422E7A
:100A9000512C712C612CC701B601A30192010E9457
:100AA0003D0F6A302CF5605DF80162938F01C4142C
:100AB000D504E604F704C8F4BF01C5010E94F5049B
:100AC000A1960FB6F894DEBF0FBECDBFDF91CF91D8
:100AD0001F910F91FF90EF90DF90CF90BF90AF905C
:100AE0007F906F905F904F90089569017A01D3CF06
:100AF000695CDACFCF92DF92EF92FF920F931F9350
:100B0000CF93DF93EC016A017B012115310579F464
:100B1000E881F9810190F081E02D642FDF91CF9180
:100B20001F910F91FF90EF90DF90CF9009942A30A2
:100B30003105E9F42AE0F7FE1AC06DE20E940A05C9
:100B40008C0144275527BA014C195D096E097F09AC
:100B50002AE0CE010E942705800F911FDF91CF91DF
:100B60001F910F91FF90EF90DF90CF900895B70104
:100B7000A601CE01DF91CF911F910F91FF90EF90D1
:100B8000DF90CF900C9427059A01AB01770F660B8D
:100B9000770B0C947A050F931F93CF93DF93EC019F
:100BA0000E94C4058C01CE010E941105800F911F87
:100BB000DF91CF911F910F9108954F925F926F92A5
:100BC0007F92AF92BF92CF92DF92EF92FF920F93FC
:100BD0001F93CF93DF93CDB7DEB729013A019B0175
:100BE000AC01241935094609570989899A89AB89C5
:100BF000BC89BC01CD016A197B098C099D090E9441
:100C00002D0FA801970124193509460957090E949B
:100C10005F0FCA01B9016A0D7B1D8C1D9D1DDF91FF
:100C2000CF911F910F91FF90EF90DF90CF90BF90E9
:100C3000AF907F906F905F904F90089508950E94BD
:100C4000C8020E941E060E948900C0E4D3E00E94F0
:100C500040012097E1F30E944003F9CFEF92FF9209
:100C60000F931F93CF93DF93EC017B014115510547
:100C700069F58CE092E099838883888199810E944C
:100C8000FB098E010F5E1F4FC8010E949107FC8275
:100C9000EB82B70190E080E00E94DA0DAB01BC016D
:100CA000C8010E94F907C0E030E020E050E040E0D9
:100CB0006C2FC8010E949D07CF5FC031A9F7DF915B
:100CC000CF911F910F91FF90EF9008955983488322
:100CD000D4CF9A014196211540E1340730F030E03D
:100CE00020E040E050E10C949D0750E040E0FBCF55
:100CF000DF92EF92FF920F931F93CF93DF93EC015C
:100D000090E080E0633008F048C01FEF160F61E00C
:100D100088E00E941109812F90E0FE0126E0129FD9
:100D2000E00DF11D11242185211130C01187D087DC
:100D3000C7831123D1F1113019F404E035E0D32E2B
:100D400026E0289F7001299FF00C1124EC0EFD1E57
:100D5000F701D5820196289FF001299FF00D1124FB
:100D6000EC0FFD1F008361E08D2D0E94D50861E02E
:100D7000802F0E94D50860E08D2D0E94110960E04F
:100D8000802F0E94110984E0F7018287CE01F6E0EE
:100D90001F9F800D911D11240596DF91CF911F910A
:100DA0000F91FF90EF90DF90089507E026E0D22E9C
:100DB000C7CFFC0113821282148211821082158225
:100DC0000895FF920F931F93CF93DF930F92CDB7A8
:100DD000DEB78C01F62E05960E94D906C8010B9647
:100DE0000E94D90660E4C80141960E94700761E044
:100DF00088E00E94D50861E086E00E94D50861E0A5
:100E000087E00E94D50860E088E00E94110960E058
:100E100086E00E94110960E087E00E941109F80154
:100E2000F2826F2DCE0101960E9470078981F80130
:100E3000818B0F90DF91CF911F910F91FF900895BB
:100E40000F931F93CF93DF93EC01162F042F623083
:100E500001F138F4613091F0DF91CF911F910F9142
:100E600008956330F9F06430B9F760E089810E9439
:100E7000110960E088810E94110909C060E0898140
:100E80000E941109602F70E088810E944F081D8325
:100E9000E3CF61E089810E9411096FEF70E0601B70
:100EA0007109F2CF61E089810E94110961E0E2CF0E
:100EB000FC01858170E0813041F0823049F48FEF90
:100EC00090E09C01261B3109B90180810C944F08E8
:100ED0000895DC01ED91FC910190F081E02D0994E1
:100EE000FC0160830895CF93DF93D62FC42FFC01BC
:100EF00060818CE092E00E940D0A6D2F8CE092E000
:100F00000E949F096C2F8CE092E00E949F098CE068
:100F100092E0DF91CF910C94900A40E060E00C9455
:100F20007307CF93DF93EC018CE092E00E94FB0902
:100F3000CE01DF91CF910C948D07FF920F931F93F9
:100F4000CF93DF93C62FF42E152F022FD32FFC0142
:100F500060818CE092E00E940D0AF4E0CF9FB00126
:100F600011246A5F7F4F8CE092E00E949F096F2DF1
:100F7000712F8CE092E00E946907612F70E08CE095
:100F800092E00E946907602F7D2F8CE092E00E9422
:100F900069076D2F70E08CE092E00E9469078CE099
:100FA00092E0DF91CF911F910F91FF900C94900AE6
:100FB0001F93CF93DF93EC01162F68818CE092E0B2
:100FC0000E940D0A612F8CE092E00E949F098CE044
:100FD00092E00E94900A41E068818CE092E00E94D9
:100FE0008D0A8CE092E00E944609DF91CF911F911B
:100FF0000895CF92DF92EF92FF921F93CF93DF93EA
:10100000EC01CB01BA0126E636E646E65FE30E9434
:10101000C00E9B01AC0160E27CEB8EEB95E40E947C
:10102000320D20E030E040E85FE30E94C50C20E094
:1010300030E040E05FE30E94C60C0E94170E6B0197
:101040007C0160E0CE010E94D807182F482F4F7610
:10105000406160E0CE010E947307C701B6010E94A3
:10106000AB0D462F6EEFCE010E947307412F60E05B
:10107000CE010E94730765E070E080E090E00E947E
:101080008F02412F416A60E0CE01DF91CF911F9125
:10109000FF90EF90DF90CF900C94730708951F930B
:1010A000CF93DF93182FEB0161E00E94D5082097C2
:1010B00039F460E0812FDF91CF911F910C941109D9
:1010C000CF3FD10511F461E0F5CFE12FF0E0E85911
:1010D000FF4FE491E33031F140F4E130B1F0E23020
:1010E000E1F0C038D1052CF3EECFE73029F1E8303C
:1010F00059F1E430B1F780918000806280938000E4
:10110000D0938B00C0938A0004C084B5806884BDEE
:10111000C7BDDF91CF911F91089584B5806284BDD2
:10112000C8BDF7CF80918000806880938000D09305
:101130008900C0938800EDCF8091B00080688093D3
:10114000B000C093B300E5CF8091B000806280937F
:10115000B000C093B400DDCF833081F028F481303B
:1011600099F08230A9F008958730A9F08830C9F04D
:101170008430B1F4809180008F7D03C08091800025
:101180008F7780938000089584B58F7784BD08950C
:1011900084B58F7DFBCF8091B0008F778093B000B6
:1011A00008958091B0008F7DF9CFCF93DF9390E0C9
:1011B000FC01E458FF4F249180579F4FFC0184911C
:1011C0008823C9F090E0880F991FFC01E255FF4F7A
:1011D000A591B491FC01EC55FF4FC591D4916111DB
:1011E0000DC09FB7F8948C91209582238C938881B1
:1011F000282328839FBFDF91CF910895623051F457
:101200009FB7F8943C91822F809583238C93E8813B
:101210002E2BEFCF8FB7F894EC912E2B2C938FBF02
:10122000EACF1F93CF93DF93162F282F30E0F901D9
:10123000E859FF4F8491F901E458FF4FD491F90127
:10124000E057FF4FC491CC23A1F081110E94AC085C
:10125000EC2FF0E0EE0FFF1FEC55FF4FA591B4917E
:101260008FB7F894EC91111108C0D095DE23DC9370
:101270008FBFDF91CF911F910895DE2BF8CF809122
:10128000400290914102891B990B0895909141026F
:10129000809140022FEF3FEF981748F4E92FF0E0DC
:1012A000EE5BFD4F208130E09F5F90934102C901CA
:1012B0000895E091410280914002E81730F4F0E097
:1012C000EE5BFD4F808190E008958FEF9FEF0895D2
:1012D0000895CF93DF93EC01E0911802F091190289
:1012E0003097F1F090914102809140029817C0F040
:1012F00090E0292F30E02617370754F4DE01A20FC3
:10130000B31F4C912E5B3D4FD9014C939F5FF1CFA2
:101310001092410260934002CB01DF91CF9109947A
:10132000DF91CF910895E0911A02F0911B0230975E
:1013300029F010921E0210921D0209940895CF9375
:10134000DF930F92CDB7DEB7698320911C02222371
:10135000F9F020911D02203258F021E030E0FC012C
:101360003383228390E080E00F90DF91CF91089546
:1013700080911E02E82FF0E0E15EFD4F998190839D
:101380008F5F80931E0280931D0281E090E0ECCF7E
:1013900061E0CE0101960E94610BF7CFCF92DF9200
:1013A000EF92FF920F931F93CF93DF937C01CB01BA
:1013B0008A0120911C02222389F0EB016B01C40EEB
:1013C000D51ECC15DD0569F06991D701ED91FC9131
:1013D0000190F081E02DC7010995F3CF642F0E94A1
:1013E000610BC801DF91CF911F910F91FF90EF909A
:1013F000DF90CF9008951092410210924002109217
:101400001E0210921D020E94A40A83E999E00E9424
:101410008D0B89E699E00C94880B81E080931C0287
:1014200060933F0210921E0210921D0208950F93C6
:10143000062F21E040911D026FE172E080913F0292
:101440000E940A0B10921E0210921D0210921C02A2
:101450000F9108954F925F926F927F92AF92BF92D9
:10146000CF92EF92FF920F931F93CF93DF935C0184
:10147000F62ED42F28013901EE2019F10E940D0A11
:10148000CE2DC43008F0C3E0C150B8F028E0C29FB0
:10149000C0011124A301920104C0569547953795C8
:1014A00027958A95D2F7B901D501ED91FC9101906C
:1014B000F081E02DC5010995E7CF60E0C5010E94EC
:1014C000170A4D2FD13208F040E22C2D62E472E071
:1014D0008F2D0E94C20A1092410280934002DF9138
:1014E000CF911F910F91FF90EF90CF90BF90AF9051
:1014F0007F906F905F904F900895CF92EF920F93EF
:101500001F93C22EE12C00E010E098010E942A0AED
:101510001F910F91EF90CF90089521E00C947D0AD8
:1015200061E00C94170AECE0F2E01382128288EE7C
:1015300093E0A0E0B0E084839583A683B7838FE334
:1015400091E09183808308951092CF0281E080938F
:10155000CD021092CC0261E082E10E94110961E0AB
:1015600083E10E941109E9EBF0E080818E7F8083A6
:1015700080818D7F808388E48093B80085E48093A8
:10158000BC000895413208F043C09091CF02911100
:10159000FCCF91E09093CF022093CD022FEF2093C8
:1015A00062021092A702240F2093A6029093CE020B
:1015B0009091CE02880F892B8093CE028091CC022D
:1015C000813009F51092CC028091CE028093BB004D
:1015D0008091BC0083FDF8CF85EC8093BC008091A6
:1015E000CF028130E1F38091A702841710F440917B
:1015F000A70228EA32E0FB01D9018A2F821B841757
:1016000020F0842F089585EEE8CF8D918193F5CF5A
:1016100040E0F7CF0F93413208F04BC09091CF02DA
:101620009111FCCF92E09093CF020093CD029FEFF7
:10163000909362021092A7024093A602362FA8EA66
:10164000B2E0FB019E2F931B941770F11092CE0213
:101650009091CE02880F892B8093CE028091CC028C
:10166000813029F51092CC028091CE028093BB008C
:101670008091BC0083FDF8CF85EC8093BC002223D1
:1016800021F08091CF028230D1F3809162028F3FAE
:1016900091F080916202803281F080916202803309
:1016A00071F084E00F91089591919D93CBCF85EED9
:1016B000E4CF81E0F7CF80E0F5CF82E0F3CF83E0A5
:1016C000F1CF20918402260F3327331F21323105B9
:1016D000ECF42091CF02FC0190E080E0243069F02E
:1016E00082E00895A09184022191AC014A575D4F98
:1016F000A40FB52FB11D2C930196861798F38091F6
:101700008402860F8093840280E0089581E008952A
:101710009093C9028093C80208959093CB0280935E
:10172000CA02089585ED8093BC008091BC0084FDC1
:10173000FCCF1092CF02089585EC8093BC001092EC
:10174000CF0208951F920F920FB60F9211242F937C
:101750003F934F935F936F937F938F939F93AF9339
:10176000BF93EF93FF938091B900887F803609F48F
:101770004CC008F03FC0883209F4A8C018F5803189
:1017800009F49CC0B8F4882309F4F9C0883009F43E
:1017900095C0FF91EF91BF91AF919F918F917F91F4
:1017A0006F915F914F913F912F910F900FBE0F90CE
:1017B0001F901895883109F489C0803251F78093C1
:1017C000620215C0803409F49EC048F48033B9F336
:1017D0008833F9F6809362020E949C0BDACF803541
:1017E00009F485C0883509F496C0883491F60E94C2
:1017F000920BCFCF883909F48CC038F5883729F09F
:1018000050F4883611F0803721F683E08093CF02C0
:101810001092630257C0883809F47BC0803919F0F0
:10182000803809F0B6CF80916302803208F071C031
:10183000E091630281E08E0F809363028091BB0090
:10184000F0E0EC59FD4F80833DC0803B39F0E0F47F
:10185000803A09F479C0883A09F09BCF84E08093FC
:10186000CF021092850210928402E091CA02F09198
:10187000CB0209958091840281110FC081E0809391
:1018800084021092860209C0803C09F476C0883C2C
:1018900009F473C0883B09F07CCFE091850281E0B8
:1018A0008E0F80938502F0E0EA57FD4F8081809390
:1018B000BB00909185028091840229C08091CE0264
:1018C0008093BB0085EC8093BC0063CF9091A7020E
:1018D0008091A602981758F5E091A70281E08E0F3B
:1018E0008093A702F0E0E855FD4F8081E9CFE091B9
:1018F000A70281E08E0F8093A7028091BB00F0E0E9
:10190000E855FD4F80839091A7028091A602981719
:10191000C8F285E8D8CFE091A70281E08E0F8093CE
:10192000A7028091BB00F0E0E855FD4F80838091D5
:10193000CD0281115CCF81E08093CC0284EA809358
:10194000BC001092CF0225CF0E949C0B80916302B5
:10195000803230F4E0916302F0E0EC59FD4F1082E8
:101960006091630270E0E091C802F091C90284E6E0
:1019700092E00995109263020CCF85ECE0CF1092B3
:10198000620235CFF8940C949E0F5058BB27AA27BB
:101990000E94DD0C0C946E0E0E94600E38F00E94C6
:1019A000670E20F039F49F3F19F426F40C945D0E75
:1019B0000EF4E095E7FB0C942E0EE92F0E947F0EAB
:1019C00058F3BA17620773078407950720F079F474
:1019D000A6F50C94B90E0EF4E0950B2EBA2FA02D9F
:1019E0000B01B90190010C01CA01A0011124FF27CC
:1019F000591B99F0593F50F4503E68F11A16F040C7
:101A0000A22F232F342F4427585FF3CF46953795C5
:101A10002795A795F0405395C9F77EF41F16BA0B8A
:101A2000620B730B840BBAF09150A1F0FF0FBB1F38
:101A3000661F771F881FC2F70EC0BA0F621F731F81
:101A4000841F48F4879577956795B795F7959E3FDE
:101A500008F0B0CF9395880F08F09927EE0F97956F
:101A6000879508950E94460D0C946E0E0E94670E95
:101A700058F00E94600E40F029F45F3F29F00C946A
:101A80002E0E51110C94BA0E0C945D0E0E947F0E16
:101A900068F39923B1F3552391F3951B550BBB279D
:101AA000AA2762177307840738F09F5F5F4F220FE2
:101AB000331F441FAA1FA9F335D00E2E3AF0E0E8D9
:101AC00032D091505040E695001CCAF72BD0FE2F23
:101AD00029D0660F771F881FBB1F261737074807B7
:101AE000AB07B0E809F0BB0B802DBF01FF2793586F
:101AF0005F4F3AF09E3F510578F00C942E0E0C94F7
:101B0000BA0E5F3FE4F3983ED4F3869577956795D8
:101B1000B795F7959F5FC9F7880F911D96958795A3
:101B200097F90895E1E0660F771F881FBB1F6217C2
:101B300073078407BA0720F0621B730B840BBA0B80
:101B4000EE1F88F7E09508950E94AB0D6894B111DF
:101B50000C94BA0E08950E94870E88F09F5798F053
:101B6000B92F9927B751B0F0E1F0660F771F881FA2
:101B7000991F1AF0BA95C9F714C0B13091F00E94BC
:101B8000B90EB1E008950C94B90E672F782F88270D
:101B9000B85F39F0B93FCCF3869577956795B395E3
:101BA000D9F73EF490958095709561957F4F8F4F52
:101BB0009F4F0895E89409C097FB3EF49095809557
:101BC000709561957F4F8F4F9F4F9923A9F0F92F03
:101BD00096E9BB279395F695879577956795B79581
:101BE000F111F8CFFAF4BB0F11F460FF1BC06F5F67
:101BF0007F4F8F4F9F4F16C0882311F096E911C079
:101C0000772321F09EE8872F762F05C0662371F099
:101C100096E8862F70E060E02AF09A95660F771FAD
:101C2000881FDAF7880F9695879597F908950E948F
:101C3000A10E90F09F3748F4911116F00C94BA0E53
:101C400060E070E080E89FEB089526F41B16611DAC
:101C5000711D811D0C94340E0C944F0E97F99F67E3
:101C600080E870E060E00895882371F4772321F024
:101C70009850872B762F07C0662311F499270DC043
:101C80009051862B70E060E02AF09A95660F771FDE
:101C9000881FDAF7880F9695879597F908959F3FE3
:101CA00031F0915020F4879577956795B795880F17
:101CB000911D9695879597F908959FEF80EC08956B
:101CC00000240A941616170618060906089500241B
:101CD0000A9412161306140605060895092E039495
:101CE000000C11F4882352F0BB0F40F4BF2B11F409
:101CF00060FF04C06F5F7F4F8F4F9F4F089557FD68
:101D00009058440F551F59F05F3F71F04795880F69
:101D100097FB991F61F09F3F79F087950895121600
:101D200013061406551FF2CF4695F1DF08C01616AC
:101D300017061806991FF1CF86957105610508945D
:101D400008950E94870EA0F0BEE7B91788F4BB275C
:101D50009F3860F41616B11D672F782F8827985F7B
:101D6000F7CF869577956795B11D93959639C8F30A
:101D70000895E894BB2766277727CB0197F9089544
:101D80000E94D30E0C946E0E0E94600E38F00E94DA
:101D9000670E20F0952311F00C942E0E0C945D0E1E
:101DA00011240C94BA0E0E947F0E70F3959FC1F31C
:101DB000950F50E0551F629FF001729FBB27F00DF9
:101DC000B11D639FAA27F00DB11DAA1F649F66274E
:101DD000B00DA11D661F829F2227B00DA11D621F9D
:101DE000739FB00DA11D621F839FA00D611D221F57
:101DF000749F3327A00D611D231F849F600D211D3B
:101E0000822F762F6A2F11249F5750409AF0F1F0BD
:101E100088234AF0EE0FFF1FBB1F661F771F881F26
:101E200091505040A9F79E3F510580F00C942E0E22
:101E30000C94BA0E5F3FE4F3983ED4F38695779501
:101E40006795B795F795E7959F5FC1F7FE2B880FCC
:101E5000911D9695879597F90895DB018F939F9330
:101E60000E947E0FBF91AF91A29F800D911DA39FF5
:101E7000900DB29F900D11240895A1E21A2EAA1B75
:101E8000BB1BFD010DC0AA1FBB1FEE1FFF1FA2172A
:101E9000B307E407F50720F0A21BB30BE40BF50B27
:101EA000661F771F881F991F1A9469F760957095B0
:101EB000809590959B01AC01BD01CF010895052E41
:101EC00097FB1EF400940E94760F57FD07D00E94E6
:101ED0003D0F07FC03D04EF40C94760F50954095BF
:101EE000309521953F4F4F4F5F4F089590958095C6
:101EF000709561957F4F8F4F9F4F08950E948F0F70
:101F0000A59F900DB49F900DA49F800D911D11244D
:101F10000895EE0FFF1F0590F491E02D0994A29F04
:101F2000B001B39FC001A39F700D811D1124911DAD
:101F3000B29F700D811D1124911D0895F894FFCF5B
:101F40004D4D4D4D6F746F72207061727479210028
:101F50004F6E65206C6F6F702069732066696E69C3
:101F6000736865642100000000009003CC04310315
:101F7000700303031D030F030D0A00000000009F00
:0E1F800009CE09C90468093F0946095909003C
:00000001FF
